{
  "contractName": "RealEstate",
  "abi": [
    {
      "constant": true,
      "inputs": [
        {
          "name": "",
          "type": "uint256"
        }
      ],
      "name": "propertyIds",
      "outputs": [
        {
          "name": "",
          "type": "uint256"
        }
      ],
      "payable": false,
      "stateMutability": "view",
      "type": "function"
    },
    {
      "constant": true,
      "inputs": [
        {
          "name": "",
          "type": "uint256"
        }
      ],
      "name": "properties",
      "outputs": [
        {
          "name": "price",
          "type": "uint256"
        },
        {
          "name": "owner",
          "type": "address"
        },
        {
          "name": "forSale",
          "type": "bool"
        },
        {
          "name": "name",
          "type": "string"
        },
        {
          "name": "description",
          "type": "string"
        },
        {
          "name": "location",
          "type": "string"
        },
        {
          "name": "propertyType",
          "type": "string"
        },
        {
          "name": "size",
          "type": "uint256"
        },
        {
          "name": "dateListed",
          "type": "uint256"
        },
        {
          "name": "taxDue",
          "type": "uint256"
        }
      ],
      "payable": false,
      "stateMutability": "view",
      "type": "function"
    },
    {
      "anonymous": false,
      "inputs": [
        {
          "indexed": false,
          "name": "propertyId",
          "type": "uint256"
        },
        {
          "indexed": false,
          "name": "price",
          "type": "uint256"
        },
        {
          "indexed": false,
          "name": "name",
          "type": "string"
        },
        {
          "indexed": false,
          "name": "location",
          "type": "string"
        }
      ],
      "name": "PropertyListed",
      "type": "event"
    },
    {
      "anonymous": false,
      "inputs": [
        {
          "indexed": false,
          "name": "propertyId",
          "type": "uint256"
        },
        {
          "indexed": false,
          "name": "newOwner",
          "type": "address"
        }
      ],
      "name": "PropertySold",
      "type": "event"
    },
    {
      "constant": false,
      "inputs": [
        {
          "name": "_propertyId",
          "type": "uint256"
        },
        {
          "name": "_price",
          "type": "uint256"
        },
        {
          "name": "_name",
          "type": "string"
        },
        {
          "name": "_description",
          "type": "string"
        },
        {
          "name": "_location",
          "type": "string"
        },
        {
          "name": "_propertyType",
          "type": "string"
        },
        {
          "name": "_size",
          "type": "uint256"
        },
        {
          "name": "_taxDue",
          "type": "uint256"
        }
      ],
      "name": "listPropertyForSale",
      "outputs": [],
      "payable": false,
      "stateMutability": "nonpayable",
      "type": "function"
    },
    {
      "constant": false,
      "inputs": [
        {
          "name": "_propertyId",
          "type": "uint256"
        }
      ],
      "name": "buyProperty",
      "outputs": [],
      "payable": true,
      "stateMutability": "payable",
      "type": "function"
    },
    {
      "constant": false,
      "inputs": [
        {
          "name": "_propertyId",
          "type": "uint256"
        },
        {
          "name": "_newTaxDue",
          "type": "uint256"
        }
      ],
      "name": "updateTaxDue",
      "outputs": [],
      "payable": false,
      "stateMutability": "nonpayable",
      "type": "function"
    },
    {
      "constant": false,
      "inputs": [
        {
          "name": "_propertyId",
          "type": "uint256"
        },
        {
          "name": "_newPrice",
          "type": "uint256"
        }
      ],
      "name": "toggleSaleStatus",
      "outputs": [],
      "payable": false,
      "stateMutability": "nonpayable",
      "type": "function"
    }
  ],
  "bytecode": "0x6060604052341561000f57600080fd5b610d398061001e6000396000f300606060405260043610610078576000357c0100000000000000000000000000000000000000000000000000000000900463ffffffff16806301eff05a1461007d578063486183d0146100a95780636fa830a6146100d5578063d03b47f4146100ed578063f30dc3f514610124578063f7b108081461026e575b600080fd5b341561008857600080fd5b6100a7600480803590602001909190803590602001909190505061051c565b005b34156100b457600080fd5b6100d360048080359060200190919080359060200190919050506105a9565b005b6100eb60048080359060200190919050506106af565b005b34156100f857600080fd5b61010e6004808035906020019091905050610831565b6040518082815260200191505060405180910390f35b341561012f57600080fd5b61026c600480803590602001909190803590602001909190803590602001908201803590602001908080601f0160208091040260200160405190810160405280939291908181526020018383808284378201915050505050509190803590602001908201803590602001908080601f0160208091040260200160405190810160405280939291908181526020018383808284378201915050505050509190803590602001908201803590602001908080601f0160208091040260200160405190810160405280939291908181526020018383808284378201915050505050509190803590602001908201803590602001908080601f01602080910402602001604051908101604052809392919081815260200183838082843782019150505050505091908035906020019091908035906020019091905050610855565b005b341561027957600080fd5b61028f6004808035906020019091905050610b27565b604051808b81526020018a73ffffffffffffffffffffffffffffffffffffffff1673ffffffffffffffffffffffffffffffffffffffff168152602001891515151581526020018060200180602001806020018060200188815260200187815260200186815260200185810385528c8181546001816001161561010002031660029004815260200191508054600181600116156101000203166002900480156103785780601f1061034d57610100808354040283529160200191610378565b820191906000526020600020905b81548152906001019060200180831161035b57829003601f168201915b505085810384528b8181546001816001161561010002031660029004815260200191508054600181600116156101000203166002900480156103fb5780601f106103d0576101008083540402835291602001916103fb565b820191906000526020600020905b8154815290600101906020018083116103de57829003601f168201915b505085810383528a81815460018160011615610100020316600290048152602001915080546001816001161561010002031660029004801561047e5780601f106104535761010080835404028352916020019161047e565b820191906000526020600020905b81548152906001019060200180831161046157829003601f168201915b50508581038252898181546001816001161561010002031660029004815260200191508054600181600116156101000203166002900480156105015780601f106104d657610100808354040283529160200191610501565b820191906000526020600020905b8154815290600101906020018083116104e457829003601f168201915b50509e50505050505050505050505050505060405180910390f35b3373ffffffffffffffffffffffffffffffffffffffff1660008084815260200190815260200160002060010160009054906101000a900473ffffffffffffffffffffffffffffffffffffffff1673ffffffffffffffffffffffffffffffffffffffff1614151561058b57600080fd5b80600080848152602001908152602001600020600801819055505050565b3373ffffffffffffffffffffffffffffffffffffffff1660008084815260200190815260200160002060010160009054906101000a900473ffffffffffffffffffffffffffffffffffffffff1673ffffffffffffffffffffffffffffffffffffffff1614151561061857600080fd5b60008083815260200190815260200160002060010160149054906101000a900460ff161560008084815260200190815260200160002060010160146101000a81548160ff02191690831515021790555060008083815260200190815260200160002060010160149054906101000a900460ff16156106ab5780600080848152602001908152602001600020600001819055505b5050565b60008060008084815260200190815260200160002091508160010160149054906101000a900460ff1615156106e357600080fd5b348260000154111515156106f657600080fd5b8160010160009054906101000a900473ffffffffffffffffffffffffffffffffffffffff169050338260010160006101000a81548173ffffffffffffffffffffffffffffffffffffffff021916908373ffffffffffffffffffffffffffffffffffffffff16021790555060008260010160146101000a81548160ff0219169083151502179055508073ffffffffffffffffffffffffffffffffffffffff166108fc83600001549081150290604051600060405180830381858888f1935050505015156107c157600080fd5b7fb424abc5eb4b182f4334d7f8fa7c796e8d0b113fa9b68319cb6faefffbf0f18c8333604051808381526020018273ffffffffffffffffffffffffffffffffffffffff1673ffffffffffffffffffffffffffffffffffffffff1681526020019250505060405180910390a1505050565b60018181548110151561084057fe5b90600052602060002090016000915090505481565b61085d610ba4565b610140604051908101604052808981526020013373ffffffffffffffffffffffffffffffffffffffff168152602001600115158152602001888152602001878152602001868152602001858152602001848152602001428152602001838152509050806000808b81526020019081526020016000206000820151816000015560208201518160010160006101000a81548173ffffffffffffffffffffffffffffffffffffffff021916908373ffffffffffffffffffffffffffffffffffffffff16021790555060408201518160010160146101000a81548160ff021916908315150217905550606082015181600201908051906020019061095f929190610c28565b50608082015181600301908051906020019061097c929190610c28565b5060a0820151816004019080519060200190610999929190610c28565b5060c08201518160050190805190602001906109b6929190610c28565b5060e0820151816006015561010082015181600701556101208201518160080155905050600180548060010182816109ee9190610ca8565b916000526020600020900160008b909190915055507f8b36ffc128c3b728d82e3efd313e19f88c942b0bfac2586c0f5882f44424792489898988604051808581526020018481526020018060200180602001838103835285818151815260200191508051906020019080838360005b83811015610a78578082015181840152602081019050610a5d565b50505050905090810190601f168015610aa55780820380516001836020036101000a031916815260200191505b50838103825284818151815260200191508051906020019080838360005b83811015610ade578082015181840152602081019050610ac3565b50505050905090810190601f168015610b0b5780820380516001836020036101000a031916815260200191505b50965050505050505060405180910390a1505050505050505050565b60006020528060005260406000206000915090508060000154908060010160009054906101000a900473ffffffffffffffffffffffffffffffffffffffff16908060010160149054906101000a900460ff16908060020190806003019080600401908060050190806006015490806007015490806008015490508a565b6101406040519081016040528060008152602001600073ffffffffffffffffffffffffffffffffffffffff168152602001600015158152602001610be6610cd4565b8152602001610bf3610cd4565b8152602001610c00610cd4565b8152602001610c0d610cd4565b81526020016000815260200160008152602001600081525090565b828054600181600116156101000203166002900490600052602060002090601f016020900481019282601f10610c6957805160ff1916838001178555610c97565b82800160010185558215610c97579182015b82811115610c96578251825591602001919060010190610c7b565b5b509050610ca49190610ce8565b5090565b815481835581811511610ccf57818360005260206000209182019101610cce9190610ce8565b5b505050565b602060405190810160405280600081525090565b610d0a91905b80821115610d06576000816000905550600101610cee565b5090565b905600a165627a7a72305820be0334789d82319e4b1ff47c693c23dce17150072fcd33686c503eed76b167f70029",
  "source": "// SPDX-License-Identifier: MIT\npragma solidity ^0.4.18;\n\nimport \"./SafeMath.sol\";\n\ncontract RealEstate {\n    using SafeMath for uint256;\n\n    struct Property {\n        uint256 price;\n        address owner;\n        bool forSale;\n        string name;\n        string description;\n        string location;\n        string propertyType;\n        uint256 size;\n        uint256 dateListed;\n        uint256 taxDue;\n    }\n\n    mapping(uint => Property) public properties;\n    uint[] public propertyIds;\n\n    event PropertyListed(uint propertyId, uint256 price, string name, string location);\n    event PropertySold(uint propertyId, address newOwner);\n\n    function listPropertyForSale(\n        uint _propertyId,\n        uint _price,\n        string _name,\n        string _description,\n        string _location,\n        string _propertyType,\n        uint256 _size,\n        uint256 _taxDue\n    ) public {\n        Property memory newProperty = Property({\n            price: _price,\n            owner: msg.sender,\n            forSale: true,\n            name: _name,\n            description: _description,\n            location: _location,\n            propertyType: _propertyType,\n            size: _size,\n            dateListed: now,\n            taxDue: _taxDue\n        });\n\n        properties[_propertyId] = newProperty;\n        propertyIds.push(_propertyId);\n\n        PropertyListed(_propertyId, _price, _name, _location);\n    }\n\n    function buyProperty(uint _propertyId) public payable {\n        Property storage property = properties[_propertyId];\n\n        require(property.forSale); // The property is not for sale\n        require(property.price <= msg.value); // Insufficient funds\n\n        address previousOwner = property.owner;\n        property.owner = msg.sender;\n        property.forSale = false;\n\n        previousOwner.transfer(property.price);\n\n        PropertySold(_propertyId, msg.sender);\n    }\n\n    function updateTaxDue(uint _propertyId, uint256 _newTaxDue) public {\n        require(properties[_propertyId].owner == msg.sender);\n        properties[_propertyId].taxDue = _newTaxDue;\n    }\n\n    function toggleSaleStatus(uint _propertyId, uint256 _newPrice) public {\n        require(properties[_propertyId].owner == msg.sender); // Only the owner can toggle sale status\n        properties[_propertyId].forSale = !properties[_propertyId].forSale;\n        if (properties[_propertyId].forSale) {\n            properties[_propertyId].price = _newPrice;\n        }\n    }\n}\n",
  "sourcePath": "/home/ubuntu/pet-shop-tutorial/RealEstateDapp/contracts/RealEstate.sol",
  "compiler": {
    "name": "solc",
    "version": "0.4.18+commit.9cf6e910.Emscripten.clang"
  },
  "schemaVersion": "2.0.2",
  "updatedAt": "2024-10-29T13:52:23.592Z"
}